:100000000C942A000C9447000C9447000C94470071
:100010000C9447000C9447000C9447000C94470044
:100020000C9447000C94A30E0C9447000C944700CA
:100030000C9447000C9447000C9447000C94470024
:100040000C9447000C9447000C9447000C94470014
:100050000C94470011241FBECFE5D8E0DEBFCDBF12
:1000600011E0A0E6B0E0E2EBF6E402C005900D92EC
:10007000A639B107D9F711E0A6E9B1E001C01D9298
:10008000A43AB107E1F70E943B210C9457230C944A
:100090000000EF92FF920F931F937B018C0120E0F1
:1000A00030E040E05FE40E94550488238CF0C801F2
:1000B000B70120E030E040E05FE40E94C1010E940F
:1000C000B5049B01AC01205030404040504806C070
:1000D000C801B7010E94B5049B01AC01B901CA0176
:1000E0001F910F91FF90EF900895A0E0B0E0EBE733
:1000F000F0E00C942023DC012B01FA019C9192305A
:1001000008F439C1EB018881823008F433C194309E
:1001100069F4843009F02FC111969C91119789815F
:10012000981709F428C1AEE8B0E025C1843009F47D
:1001300021C18230A9F4923009F01DC19A01AD01AC
:1001400088E0EA010990AE01E90109929E0181501F
:10015000C1F7E201898111969C918923818308C1AD
:10016000923009F407C112962D903C901397EB0141
:100170008A819B811496AD90BD90CD90DC901797AD
:10018000EC80FD800E811F819101281B390BB90184
:1001900037FF04C066277727621B730B6032710537
:1001A0000CF061C0121613066CF537014801062EDB
:1001B00004C096948794779467940A94D2F721E0C8
:1001C00030E040E050E004C0220F331F441F551FB1
:1001D0006A95D2F721503040404050402E213F21B7
:1001E00040235123211531054105510521F021E01E
:1001F00030E040E050E079018A01E628F72808293C
:1002000019293CC0232BD1F1260E371E350146019A
:10021000062E04C096948794779467940A94D2F734
:1002200021E030E040E050E004C0220F331F441FC3
:10023000551F6A95D2F721503040404050402A2146
:100240003B214C215D21211531054105510521F04E
:1002500021E030E040E050E059016A01A628B728CB
:10026000C828D9280BC0821593052CF01C01AA249C
:10027000BB24650103C0EE24FF24870111969C91E5
:10028000D20111968C91981709F445C0992339F041
:10029000A80197012A193B094C095D0906C0A6016E
:1002A00095012E193F09400B510B57FD08C01182D3
:1002B0003382228224833583468357831DC081E0A5
:1002C00081833382228288279927DC01821B930B4A
:1002D000A40BB50B84839583A683B7830DC0220F2F
:1002E000331F441F551F24833583468357838281E0
:1002F000938101979383828324813581468157813D
:10030000DA01C9010197A109B1098F5F9F4FAF4F72
:10031000BF4328F30BC0918333822282EA0CFB1C7B
:100320000C1D1D1DE482F5820683178383E0808304
:10033000248135814681578157FF1AC0C901AA27F8
:1003400097FDA095BA2F81709070A070B0705695EF
:10035000479537952795822B932BA42BB52B848318
:100360009583A683B7838281938101969383828349
:10037000DF0101C0D201CD01CDB7DEB7E2E10C94BF
:100380003C23A0E2B0E0E7ECF1E00C942C2369837D
:100390007A838B839C832D833E834F835887E9E048
:1003A000EE2EF12CEC0EFD1ECE010196B7010E943F
:1003B000A6068E010F5E1F4FCE010596B8010E9462
:1003C000A6068A8991E089278A8BC701B801AE0108
:1003D000475E5F4F0E9475000E94D105A096E6E03F
:1003E0000C944823A0E2B0E0E8EFF1E00C942C2359
:1003F00069837A838B839C832D833E834F835887C5
:10040000F9E0EF2EF12CEC0EFD1ECE010196B701A6
:100410000E94A6068E010F5E1F4FCE010596B80101
:100420000E94A606C701B801AE01475E5F4F0E9459
:1004300075000E94D105A096E6E00C944823A0E246
:10044000B0E0E5E2F2E00C94202369837A838B83A9
:100450009C832D833E834F835887CE010196BE0136
:10046000675F7F4F0E94A606CE010596BE016F5EB4
:100470007F4F0E94A6069985923088F08989823044
:10048000C8F0943019F4823051F404C0843029F457
:10049000923081F48EE890E0C6C0923049F420E0BA
:1004A0009A858A89981321E02A87CE010996BBC0D4
:1004B000823049F420E09A858A89981321E02A8BBA
:1004C000CE014196B0C02D843E844F8458886D88FB
:1004D0007E888F88988CEE24FF248701AA24BB2471
:1004E000650140E050E060E070E0E0E0F0E0C10174
:1004F00081709070892BE9F0E60CF71C081D191D1E
:100500009A01AB012A0D3B1D4C1D5D1D80E090E062
:10051000A0E0B0E0E614F7040805190520F481E036
:1005200090E0A0E0B0E0BA01A901480F591F6A1F8E
:100530007B1FAA0CBB1CCC1CDD1C97FE08C081E0F5
:1005400090E0A0E0B0E0A82AB92ACA2ADB2A3196B6
:10055000E032F10549F0660C771C881C991C569412
:10056000479437942794C3CFFA85EA892B893C892D
:100570008B859C85280F391F2E5F3F4F17C0CA01FE
:1005800081709070892B61F016950795F794E79428
:1005900080E090E0A0E0B0E8E82AF92A0A2B1B2BC3
:1005A00076956795579547952F5F3F4F77FDE7CF36
:1005B0000CC0440F551F661F771F17FD4160EE0CDE
:1005C000FF1C001F111F21503040403090E05907A0
:1005D00090E0690790E4790760F32B8F3C8FDB0193
:1005E000CA018F779070A070B07080349105A1051A
:1005F000B10561F447FD0AC0E114F10401051105DC
:1006000029F0405C5F4F6F4F7F4F40781A8EFE1786
:1006100011F081E08A8F4D8F5E8F6F8F78A383E01A
:10062000898FCE0149960E94D105A096E2E10C94F3
:100630003C23A8E1B0E0EFE1F3E00C9428236983C8
:100640007A838B839C832D833E834F835887B9E0C5
:10065000EB2EF12CEC0EFD1ECE010196B7010E948F
:10066000A6068E010F5E1F4FCE010596B8010E94AF
:10067000A6062985223008F47EC03989323010F46C
:10068000B8017CC08A859A8989278A87243011F02D
:10069000223031F4231709F06EC06EE870E06EC0AE
:1006A000343039F41D861E861F86188A1C861B86E8
:1006B00004C0323021F484E08987B7015FC02B8504
:1006C0003C858B899C89281B390B3C872B87ED84C3
:1006D000FE840F851889AD88BE88CF88D88CEA142F
:1006E000FB040C051D0540F4EE0CFF1C001F111F40
:1006F000215030403C872B8720E030E040E050E044
:1007000080E090E0A0E0B0E460E070E0EA14FB0478
:100710000C051D0540F0282B392B4A2B5B2BEA18C2
:10072000FB080C091D09B695A79597958795EE0CC2
:10073000FF1C001F111F6F5F7F4F6F31710531F775
:10074000DA01C9018F779070A070B0708034910584
:10075000A105B10561F427FD0AC0E114F10401050A
:10076000110529F0205C3F4F4F4F5F4F20782D87B8
:100770003E874F87588BBE01675F7F4FCB010E943A
:10078000D1056896EAE00C944423A8E1B0E0EBECD4
:10079000F3E00C942C2369837A838B839C832D83D1
:1007A0003E834F83588789E0E82EF12CEC0EFD1E26
:1007B000CE010196B7010E94A6068E010F5E1F4F63
:1007C000CE010596B8010E94A6068985823040F0C8
:1007D0008989823028F0C701B8010E941E0701C034
:1007E00081E06896E6E00C944823A8E1B0E0EBEFE6
:1007F000F3E00C942C2369837A838B839C832D8371
:100800003E834F83588789E0E82EF12CEC0EFD1EC5
:10081000CE010196B7010E94A6068E010F5E1F4F02
:10082000CE010596B8010E94A6068985823040F067
:100830008989823028F0C701B8010E941E0701C0D3
:1008400081E06896E6E00C944823A8E1B0E0EBE292
:10085000F4E00C942C2369837A838B839C832D830F
:100860003E834F83588789E0E82EF12CEC0EFD1E65
:10087000CE010196B7010E94A6068E010F5E1F4FA2
:10088000CE010596B8010E94A6068985823040F007
:100890008989823028F0C701B8010E941E0701C073
:1008A0008FEF6896E6E00C944823A8E1B0E0EBE512
:1008B000F4E00C942C2369837A838B839C832D83AF
:1008C0003E834F83588789E0E82EF12CEC0EFD1E05
:1008D000CE010196B7010E94A6068E010F5E1F4F42
:1008E000CE010596B8010E94A6068985823040F0A7
:1008F0008989823028F0C701B8010E941E0701C013
:100900008FEF6896E6E00C944823A8E1B0E0EBE8AE
:10091000F4E00C942C2369837A838B839C832D834E
:100920003E834F83588789E0E82EF12CEC0EFD1EA4
:10093000CE010196B7010E94A6068E010F5E1F4FE1
:10094000CE010596B8010E94A6068985823040F046
:100950008989823028F0C701B8010E941E0701C0B2
:1009600081E06896E6E00C944823ACE0B0E0EBEB65
:10097000F4E00C94302369837A838B839C83CE01CB
:100980000196BE016B5F7F4F0E94A6068D8182306B
:1009900061F1823050F1843021F48E81882351F14D
:1009A0002EC02F81388537FD20C06E812F31310553
:1009B0001CF06623F9F023C08EE190E0821B930BBC
:1009C00029853A854B855C8504C0569547953795B2
:1009D00027958A95D2F76623B1F0509540953095CA
:1009E00021953F4F4F4F5F4F0EC020E030E040E079
:1009F00050E009C02FEF3FEF4FEF5FE704C020E06A
:100A000030E040E050E8B901CA012C96E2E00C94D5
:100A10004C23A8E0B0E0EFE0F5E00C9428237B0144
:100A20008C01611571058105910519F482E08983B6
:100A300060C083E089838EE1C82ED12CDC82CB821A
:100A4000ED82FE820F831887C801B7010E948205DC
:100A5000FC013197F7FF3BC0222733272E1B3F0BAA
:100A600057016801022E04C0D694C794B794A79486
:100A70000A94D2F740E050E060E070E081E090E05E
:100A8000A0E0B0E004C0880F991FAA1FBB1F2A95E1
:100A9000D2F70197A109B1098E219F21A023B1238B
:100AA0000097A105B10521F041E050E060E070E061
:100AB0004A295B296C297D294D835E836F83788762
:100AC0008EE190E08E1B9F0B9C838B8312C030972E
:100AD00081F00E2E04C0EE0CFF1C001F111F0A94A3
:100AE000D2F7ED82FE820F831887CE1ADF0ADC82EE
:100AF000CB821A82CE0101960E94D1052896EAE0A7
:100B00000C944423EF92FF920F931F937B018C016F
:100B100080E0E81680E0F80681E0080780E018072A
:100B200088F48FEFE816F1040105110531F028F083
:100B300088E090E0A0E0B0E017C080E090E0A0E0A6
:100B4000B0E012C080E0E81680E0F80680E0080718
:100B500081E0180728F088E190E0A0E0B0E004C050
:100B600080E190E0A0E0B0E020E230E040E050E042
:100B7000281B390B4A0B5B0B04C016950795F7949D
:100B8000E7948A95D2F7F701EA56FF4F8081281B38
:100B9000310941095109C9011F910F91FF90EF904F
:100BA0000895DF92EF92FF920F931F93FC01E48070
:100BB000F58006811781D1808081823048F480E001
:100BC00090E0A0E1B0E0E82AF92A0A2B1B2BA5C08F
:100BD000843009F49FC0823021F4EE24FF24870181
:100BE00005C0E114F1040105110519F4E0E0F0E09D
:100BF00096C0628173819FEF623879070CF05BC009
:100C000022E83FEF261B370B2A3131052CF020E07C
:100C100030E040E050E02AC0B801A701022E04C035
:100C200076956795579547950A94D2F781E090E0BD
:100C3000A0E0B0E004C0880F991FAA1FBB1F2A952F
:100C4000D2F70197A109B1098E219F21A023B123D9
:100C50000097A105B10521F081E090E0A0E0B0E0AF
:100C60009A01AB01282B392B4A2B5B2BDA01C901E6
:100C70008F779070A070B07080349105A105B10598
:100C800039F427FF09C0205C3F4F4F4F5F4F04C02E
:100C9000215C3F4F4F4F5F4FE0E0F0E02030A0E09D
:100CA0003A07A0E04A07A0E45A0710F0E1E0F0E0BC
:100CB00079018A0127C06038710564F5FB01E158AC
:100CC000FF4FD801C7018F779070A070B07080344B
:100CD0009105A105B10539F4E7FE0DC080E490E06F
:100CE000A0E0B0E004C08FE390E0A0E0B0E0E80E48
:100CF000F91E0A1F1B1F17FF05C016950795F794CD
:100D0000E794319687E016950795F794E7948A95CE
:100D1000D1F705C0EE24FF248701EFEFF0E06E2F3E
:100D2000679566276795902F9F77D794DD24D79492
:100D30008E2F8695492F462B582F5D29B701CA0162
:100D40001F910F91FF90EF90DF900895FC01DB0160
:100D5000408151812281622F6F7770E0221F22270C
:100D6000221F9381892F880F822B282F30E0991F13
:100D70009927991F11969C93119721153105A9F573
:100D8000411551056105710511F482E037C082E813
:100D90009FEF13969C938E9312979A01AB0167E095
:100DA000220F331F441F551F6A95D1F783E08C93A0
:100DB0000DC0220F331F441F551F12968D919C9119
:100DC0001397019713969C938E931297203080E08F
:100DD000380780E0480780E4580758F314962D93AD
:100DE0003D934D935C93179708952F3F310579F408
:100DF000411551056105710519F484E08C9308953E
:100E000064FF03C081E08C9312C01C9210C02F5766
:100E1000304013963C932E93129783E08C9387E097
:100E2000440F551F661F771F8A95D1F7706414967B
:100E30004D935D936D937C93179708951F93DC01F9
:100E4000FB019C91923008F447C08081823008F405
:100E500043C0943051F411961C91843099F58181EE
:100E6000682F70E0611B71093FC0843021F092301F
:100E700031F48230B9F18181882389F12DC0119636
:100E80001C9111978230F1F081811817D9F41296D4
:100E90002D913C911397828193818217930794F04F
:100EA00028173907BCF014968D919D910D90BC9137
:100EB000A02D2481358146815781281739074A079B
:100EC0005B0718F4112341F00AC082179307A407A7
:100ED000B50740F4112319F061E070E005C06FEF31
:100EE0007FEF02C060E070E0CB011F910895DF93B7
:100EF000CF93CDB7DEB727970FB6F894DEBF0FBEFE
:100F0000CDBF9A8389836B8389819A81CC01A0E0CC
:100F1000B0E080939A0190939B01A0939C01B093C1
:100F20009D0129813A813F832E838E819F81803468
:100F3000910509F44BC02E813F812134310558F4CD
:100F40008E819F8181309105A9F02E813F812830CB
:100F5000310531F17CC08E819F8121E08030920784
:100F600009F44AC08E819F8124E08030920709F401
:100F700059C06DC0AEE4B0E0EEE4F0E08081816085
:100F80008C93AEE4B0E0EEE4F0E080818D7F8C9352
:100F9000AEE4B0E0EEE4F0E080818B7F8C9357C04C
:100FA000AEE4B0E0EEE4F0E080818E7F8C93AEE4BE
:100FB000B0E0EEE4F0E0808182608C93AEE4B0E0DB
:100FC000EEE4F0E080818B7F8C9341C0AEE4B0E032
:100FD000EEE4F0E0808181608C93AEE4B0E0EEE47A
:100FE000F0E0808182608C93AEE4B0E0EEE4F0E06B
:100FF00080818B7F8C932BC0AEE4B0E0EEE4F0E018
:1010000080818E7F8C93AEE4B0E0EEE4F0E08081EE
:101010008D7F8C93AEE4B0E0EEE4F0E080818460FC
:101020008C9315C0AEE4B0E0EEE4F0E08081816026
:101030008C93AEE4B0E0EEE4F0E080818D7F8C93A1
:10104000AEE4B0E0EEE4F0E0808184608C938B81CC
:10105000282F30E03D832C838C819D818730910542
:1010600009F4F0C12C813D81283031054CF58C818B
:101070009D818330910509F4FFC02C813D8124308E
:1010800031058CF48C819D818130910509F46EC00D
:101090002C813D81223031050CF0ABC08C819D81CB
:1010A0000097C9F1C0C32C813D812530310509F479
:1010B00043C18C819D81863091050CF080C11FC198
:1010C0002C813D812B30310509F4C8C28C819D8172
:1010D0008C3091056CF42C813D812930310509F467
:1010E00037C28C819D818A3091050CF074C2EDC1AC
:1010F0002C813D812D30310509F410C38C819D81F7
:101100008D3091050CF4EDC22C813D812E303105DE
:1011100009F447C388C3AFE4B0E0EFE4F0E08081B6
:101120008E7F8C93AFE4B0E0EFE4F0E080818D7FC0
:101130008C93AEE4B0E0EEE4F0E08081877F8C93A6
:10114000AEE4B0E0EEE4F0E080818F7E8C93AFE51A
:10115000B0E0EFE5F0E0808180688C93A9E5B0E035
:10116000E9E5F0E0808184608C935DC3AFE4B0E09A
:10117000EFE4F0E0808181608C93AFE4B0E0EFE4D5
:10118000F0E080818D7F8C93AEE4B0E0EEE4F0E09F
:101190008081877F8C93AEE4B0E0EEE4F0E0808164
:1011A0008F7E8C9383E064E041E00E94000F83E037
:1011B00065E041E00E94000FAFE4B0E0EFE4F0E052
:1011C00080818F7E8C93AFE4B0E0EFE4F0E080812B
:1011D00080628C93AFE4B0E0EFE4F0E080818F7B3D
:1011E0008C93AFE4B0E0EFE4F0E0808180688C9312
:1011F0001AC3AFE4B0E0EFE4F0E080818E7F8C931F
:10120000AFE4B0E0EFE4F0E0808182608C93AEE484
:10121000B0E0EEE4F0E08081877F8C93AEE4B0E054
:10122000EEE4F0E080818F7E8C9383E064E041E027
:101230000E94000F83E065E041E00E94000FAFE4F0
:10124000B0E0EFE4F0E080818F7E8C93AFE4B0E01B
:10125000EFE4F0E0808180628C93AFE4B0E0EFE4F3
:10126000F0E080818F7B8C93AFE4B0E0EFE4F0E0BE
:10127000808180688C93D7C2AFE4B0E0EFE4F0E007
:10128000808181608C93AFE4B0E0EFE4F0E0808196
:1012900082608C93AEE4B0E0EEE4F0E08081877F82
:1012A0008C93AEE4B0E0EEE4F0E080818F7E8C932E
:1012B00083E064E041E00E94000F83E065E041E0EC
:1012C0000E94000FAFE4B0E0EFE4F0E080818F7E99
:1012D0008C93AFE4B0E0EFE4F0E0808180628C9327
:1012E000AFE4B0E0EFE4F0E080818F7B8C93AFE47B
:1012F000B0E0EFE4F0E0808180688C9394C2AFE4CA
:10130000B0E0EFE4F0E080818E7F8C93AFE4B0E05A
:10131000EFE4F0E080818D7F8C93AEE4B0E0EEE40A
:10132000F0E0808188608C93AEE4B0E0EEE4F0E021
:1013300080818F7E8C9377C2AFE4B0E0EFE4F0E081
:10134000808181608C93AFE4B0E0EFE4F0E08081D5
:101350008D7F8C93AEE4B0E0EEE4F0E080818860B5
:101360008C93AEE4B0E0EEE4F0E080818F7E8C936D
:1013700083E064E041E00E94000F83E065E041E02B
:101380000E94000FAFE4B0E0EFE4F0E080818F7ED8
:101390008C93AFE4B0E0EFE4F0E0808180628C9366
:1013A000AFE4B0E0EFE4F0E080818F7B8C93AFE4BA
:1013B000B0E0EFE4F0E0808180688C9334C2AFE469
:1013C000B0E0EFE4F0E080818E7F8C93AFE4B0E09A
:1013D000EFE4F0E0808182608C93AEE4B0E0EEE474
:1013E000F0E0808188608C93AEE4B0E0EEE4F0E061
:1013F00080818F7E8C9383E064E041E00E94000F47
:1014000083E065E041E00E94000FAFE4B0E0EFE46C
:10141000F0E080818F7E8C93AFE4B0E0EFE4F0E009
:10142000808180628C93AFE4B0E0EFE4F0E08081F3
:101430008F7B8C93AFE4B0E0EFE4F0E080818068D4
:101440008C93F1C1AFE4B0E0EFE4F0E08081816023
:101450008C93AFE4B0E0EFE4F0E0808182608C93A5
:10146000AEE4B0E0EEE4F0E0808188608C93AEE41E
:10147000B0E0EEE4F0E080818F7E8C9383E064E066
:1014800041E00E94000F83E065E041E00E94000F10
:10149000AFE4B0E0EFE4F0E080818F7E8C93AFE4C6
:1014A000B0E0EFE4F0E0808180628C93AFE4B0E0E4
:1014B000EFE4F0E080818F7B8C93AFE4B0E0EFE469
:1014C000F0E0808180688C93AEC1AFE4B0E0EFE4DF
:1014D000F0E080818E7F8C93AFE4B0E0EFE4F0E049
:1014E00080818D7F8C93AEE4B0E0EEE4F0E080810B
:1014F000877F8C93AEE4B0E0EEE4F0E08081806121
:101500008C9383E064E041E00E94000F83E065E09B
:1015100041E00E94000FAFE4B0E0EFE4F0E0808132
:101520008F7E8C93AFE4B0E0EFE4F0E080818062E6
:101530008C93AFE4B0E0EFE4F0E080818F7B8C939C
:10154000AFE4B0E0EFE4F0E0808180688C936BC1A1
:10155000AFE4B0E0EFE4F0E0808181608C93AFE431
:10156000B0E0EFE4F0E080818D7F8C93AEE4B0E0FA
:10157000EEE4F0E08081877F8C93AEE4B0E0EEE4AF
:10158000F0E0808180618C9383E064E041E00E9420
:10159000000F83E065E041E00E94000FAFE4B0E09F
:1015A000EFE4F0E080818F7E8C93AFE4B0E0EFE475
:1015B000F0E0808180628C93AFE4B0E0EFE4F0E093
:1015C00080818F7B8C93AFE4B0E0EFE4F0E080812A
:1015D00080688C9328C1AFE4B0E0EFE4F0E0808154
:1015E0008E7F8C93AFE4B0E0EFE4F0E08081826026
:1015F0008C93AEE4B0E0EEE4F0E08081877F8C93E2
:10160000AEE4B0E0EEE4F0E0808180618C9383E0B2
:1016100064E041E00E94000F83E065E041E00E9449
:10162000000FAFE4B0E0EFE4F0E080818F7E8C93B8
:10163000AFE4B0E0EFE4F0E0808180628C93AFE44F
:10164000B0E0EFE4F0E080818F7B8C93AFE4B0E01A
:10165000EFE4F0E0808180688C93E5C0AFE4B0E017
:10166000EFE4F0E0808181608C93AFE4B0E0EFE4E0
:10167000F0E0808182608C93AEE4B0E0EEE4F0E0D4
:101680008081877F8C93AEE4B0E0EEE4F0E080816F
:1016900080618C9383E064E041E00E94000F83E06E
:1016A00065E041E00E94000FAFE4B0E0EFE4F0E05D
:1016B00080818F7E8C93AFE4B0E0EFE4F0E0808136
:1016C00080628C93AFE4B0E0EFE4F0E080818F7B48
:1016D0008C93AFE4B0E0EFE4F0E0808180688C931D
:1016E000A2C0AFE4B0E0EFE4F0E080818E7F8C93A5
:1016F000AFE4B0E0EFE4F0E080818D7F8C93AEE466
:10170000B0E0EEE4F0E0808188608C93AEE4B0E07D
:10171000EEE4F0E0808180618C9385C0AFE4B0E0BE
:10172000EFE4F0E080818E7F8C93AFE4B0E0EFE4F3
:10173000F0E0808182608C93AEE4B0E0EEE4F0E013
:10174000808188608C93AEE4B0E0EEE4F0E08081CC
:1017500080618C9383E064E041E00E94000F83E0AD
:1017600065E041E00E94000FAFE4B0E0EFE4F0E09C
:1017700080818F7E8C93AFE4B0E0EFE4F0E0808175
:1017800080628C93AFE4B0E0EFE4F0E080818F7B87
:101790008C93AFE4B0E0EFE4F0E0808180688C935C
:1017A00042C0AFE4B0E0EFE4F0E0808181608C9370
:1017B000AFE4B0E0EFE4F0E0808182608C93AEE4CF
:1017C000B0E0EEE4F0E0808188608C93AEE4B0E0BD
:1017D000EEE4F0E0808180618C9383E064E041E09E
:1017E0000E94000F83E065E041E00E94000FAFE43B
:1017F000B0E0EFE4F0E080818F7E8C93AFE4B0E066
:10180000EFE4F0E0808180628C93AFE4B0E0EFE43D
:10181000F0E080818F7B8C93AFE4B0E0EFE4F0E008
:10182000808180688C9327960FB6F894DEBF0FBE38
:10183000CDBFCF91DF910895DF93CF93CDB7DEB7C2
:1018400062970FB6F894DEBF0FBECDBF6D877E875F
:101850008F87988B5A8B498B80919A0190919B012D
:10186000A0919C01B0919D01072E7DE0880F991FEA
:10187000AA1FBB1F7A95D1F7702D89879A87AB87EE
:10188000BC878D859E85AF85B88929853A854B852E
:101890005C85BC01CD010E94FE22DA01C901BC01B8
:1018A000CD010E940905DC01CB018D839E83AF83AE
:1018B000B88789899A8990939F0180939E016D8151
:1018C0007E818F81988520E030E040E85FE30E94D0
:1018D000850488239CF581E090E0A0E0B0E080934F
:1018E000A0019093A101A093A201B093A3016D81E7
:1018F0007E818F81988520E03FEF4FE757EC0E9473
:101900001F02DC01CB01BC01CD0120E03FEF4FE71E
:1019100057E40E94F201DC01CB01BC01CD010E9421
:101920004900DC01CB0189839A83AB83BC83ECE45F
:10193000F0E089819A8191838083A4C06D817E814A
:101940008F81988520E030E040E85FE30E94C50386
:10195000882369F481E090E0A0E0B0E08093A001EA
:101960009093A101A093A201B093A3018BC06D81BC
:101970007E818F81988520E030E040E85FE30E941F
:10198000250418160CF07EC06D817E818F819885AC
:101990000E944900DC01CB018093A0019093A1013A
:1019A000A093A201B093A3016D817E818F81988560
:1019B0000E944900DC01CB01BC01CD010E94090558
:1019C0009B01AC016D817E818F8198850E94C10150
:1019D000DC01CB01BC01CD0120E030E040E050E073
:1019E0000E94F503882309F44DC08091A0019091D5
:1019F000A101A091A201B091A3010196A11DB11D69
:101A00008093A0019093A101A093A201B093A301A0
:101A10006D817E818F8198850E944900DC01CB0118
:101A2000BC01CD010E9409059B01AC016D817E8145
:101A30008F8198850E94C101DC01CB01BC01CD01E1
:101A400020E03FEF4FE757EC0E941F02DC01CB0183
:101A5000BC01CD0120E03FEF4FE757E40E94F201C7
:101A6000DC01CB01BC01CD010E944900DC01CB01AE
:101A700089839A83AB83BC83ECE4F0E089819A810B
:101A80009183808362960FB6F894DEBF0FBECDBF00
:101A9000CF91DF910895DF93CF930F92CDB7DEB74B
:101AA0008983EAE4F0E08981882F90E09183808344
:101AB0000F90CF91DF910895DF93CF930F92CDB721
:101AC000DEB78983E8E4F0E08981882F90E0918394
:101AD00080830F90CF91DF910895EF92FF920F9343
:101AE0001F93DF93CF93CDB7DEB72C970FB6F89443
:101AF000DEBF0FBECDBFAEE4B0E0EEE4F0E080812B
:101B000080688C93AEE4B0E0EEE4F0E08081806425
:101B10008C93E8E5F0E08081882F90E080729070EF
:101B2000959587959595879595958795959587959D
:101B300095958795009769F3A8E5B0E0E8E5F0E0B2
:101B4000808180628C93E6E4F0E080819181CC0119
:101B5000A0E0B0E089879A87AB87BC87AEE4B0E0AD
:101B6000EEE4F0E0808180688C93AEE4B0E0EEE4D7
:101B7000F0E080818F7B8C93E8E5F0E08081882F16
:101B800090E080729070959587959595879595953D
:101B900087959595879595958795009769F3A8E51D
:101BA000B0E0E8E5F0E0808180628C93E6E4F0E06C
:101BB00080819181CC01A0E0B0E08D839E83AF83D2
:101BC000B8872D813E814F81588589859A85AB855F
:101BD000BC8579018A01E81AF90A0A0B1B0BD801A6
:101BE000C70189839A83AB83BC8389819A81AB8146
:101BF000BC81BC01CD012C960FB6F894DEBF0FBEA0
:101C0000CDBFCF91DF911F910F91FF90EF9008957D
:101C1000EF92FF920F931F93DF93CF93CDB7DEB771
:101C20002C970FB6F894DEBF0FBECDBFAEE4B0E088
:101C3000EEE4F0E0808180688C93AEE4B0E0EEE406
:101C4000F0E080818F7B8C93E8E5F0E08081882F45
:101C500090E080729070959587959595879595956C
:101C600087959595879595958795009769F3A8E54C
:101C7000B0E0E8E5F0E0808180628C93E6E4F0E09B
:101C800080819181CC01A0E0B0E08D839E83AF8301
:101C9000B887AEE4B0E0EEE4F0E0808180688C9339
:101CA000AEE4B0E0EEE4F0E0808180648C93E8E59F
:101CB000F0E08081882F90E08072907095958795F4
:101CC00095958795959587959595879595958795FC
:101CD000009769F3A8E5B0E0E8E5F0E08081806274
:101CE0008C93E6E4F0E080819181CC01A0E0B0E04B
:101CF00089879A87AB87BC8729853A854B855C8520
:101D00008D819E81AF81B88579018A01E81AF90A2F
:101D10000A0B1B0BD801C70189839A83AB83BC8351
:101D200089819A81AB81BC81BC01CD012C960FB613
:101D3000F894DEBF0FBECDBFCF91DF911F910F9101
:101D4000FF90EF9008951F920F920FB60F921124FB
:101D50002F933F934F935F936F937F938F939F93B3
:101D6000AF93BF93EF93FF93DF93CF93CDB7DEB7DE
:101D70008091960190919701A0919801B09199015D
:101D80000196A11DB11D8093960190939701A09398
:101D90009801B0939901209196013091970140915B
:101DA0009801509199018091A0019091A101A09179
:101DB000A201B091A301281739074A075B0769F40C
:101DC000E0919E01F0919F01099510929601109269
:101DD00097011092980110929901CF91DF91FF9194
:101DE000EF91BF91AF919F918F917F916F915F9193
:101DF0004F913F912F910F900FBE0F901F9018950C
:101E0000DF93CF9300D000D00F92CDB7DEB7898398
:101E10006A834B838981282F30E03D832C838C811A
:101E20009D818130910509F447C02C813D8122308C
:101E300031052CF48C819D81009771F0CBC02C81F1
:101E40003D812230310509F467C08C819D8183304A
:101E5000910509F491C0BEC08B818823A9F4AAE33F
:101E6000B0E0EAE3F0E08081482F8A81282F30E05B
:101E700081E090E0022E02C0880F991F0A94E2F7D9
:101E8000809584238C93A6C08B81813009F0A2C0F9
:101E9000AAE3B0E0EAE3F0E08081482F8A81282FAE
:101EA00030E081E090E0022E02C0880F991F0A9472
:101EB000E2F7842B8C938EC08B818823A9F4A7E34F
:101EC000B0E0E7E3F0E08081482F8A81282F30E0FE
:101ED00081E090E0022E02C0880F991F0A94E2F779
:101EE000809584238C9376C08B81813009F072C0F9
:101EF000A7E3B0E0E7E3F0E08081482F8A81282F54
:101F000030E081E090E0022E02C0880F991F0A9411
:101F1000E2F7842B8C935EC08B818823A9F4A4E321
:101F2000B0E0E4E3F0E08081482F8A81282F30E0A0
:101F300081E090E0022E02C0880F991F0A94E2F718
:101F4000809584238C9346C08B81813009F042C0F8
:101F5000A4E3B0E0E4E3F0E08081482F8A81282FF9
:101F600030E081E090E0022E02C0880F991F0A94B1
:101F7000E2F7842B8C932EC08B818823A9F4A1E3F4
:101F8000B0E0E1E3F0E08081482F8A81282F30E043
:101F900081E090E0022E02C0880F991F0A94E2F7B8
:101FA000809584238C9316C08B81813099F4A1E3B2
:101FB000B0E0E1E3F0E08081482F8A81282F30E013
:101FC00081E090E0022E02C0880F991F0A94E2F788
:101FD000842B8C930F900F900F900F900F90CF91B8
:101FE000DF910895DF93CF9300D000D00F92CDB74B
:101FF000DEB789836A834B838981282F30E03D8354
:102000002C838C819D818130910509F447C02C81FE
:102010003D81223031052CF48C819D81009771F037
:10202000CBC02C813D812230310509F467C08C8101
:102030009D818330910509F491C0BEC08B818823B6
:10204000A9F4ABE3B0E0EBE3F0E08081482F8A81B4
:10205000282F30E081E090E0022E02C0880F991F07
:102060000A94E2F7809584238C93A6C08B818130FB
:1020700009F0A2C0ABE3B0E0EBE3F0E08081482FD1
:102080008A81282F30E081E090E0022E02C0880F84
:10209000991F0A94E2F7842B8C938EC08B8188233E
:1020A000A9F4A8E3B0E0E8E3F0E08081482F8A815A
:1020B000282F30E081E090E0022E02C0880F991FA7
:1020C0000A94E2F7809584238C9376C08B818130CB
:1020D00009F072C0A8E3B0E0E8E3F0E08081482FA7
:1020E0008A81282F30E081E090E0022E02C0880F24
:1020F000991F0A94E2F7842B8C935EC08B8188230E
:10210000A9F4A5E3B0E0E5E3F0E08081482F8A81FF
:10211000282F30E081E090E0022E02C0880F991F46
:102120000A94E2F7809584238C9346C08B8181309A
:1021300009F042C0A5E3B0E0E5E3F0E08081482F7C
:102140008A81282F30E081E090E0022E02C0880FC3
:10215000991F0A94E2F7842B8C932EC08B818823DD
:10216000A9F4A2E3B0E0E2E3F0E08081482F8A81A5
:10217000282F30E081E090E0022E02C0880F991FE6
:102180000A94E2F7809584238C9316C08B8181306A
:1021900099F4A2E3B0E0E2E3F0E08081482F8A8185
:1021A000282F30E081E090E0022E02C0880F991FB6
:1021B0000A94E2F7842B8C930F900F900F900F905E
:1021C0000F90CF91DF910895DF93CF9300D000D08F
:1021D0000F92CDB7DEB78A836B838A81282F30E0D8
:1021E0003D832C834C815D8141305105B1F18C815F
:1021F0009D818230910534F42C813D81211531057A
:1022000071F084C04C815D814230510509F443C0B6
:102210008C819D818330910509F45BC077C0E9E32F
:10222000F0E08081482F50E08B81282F30E081E062
:1022300090E002C0880F991F2A95E2F79A0128239F
:1022400039238B81882F90E0A90102C055954795CD
:102250008A95E2F7CA01898359C0E6E3F0E08081FC
:10226000482F50E08B81282F30E081E090E002C0C1
:10227000880F991F2A95E2F79A01282339238B8129
:10228000882F90E0A90102C0559547958A95E2F7FD
:10229000CA0189833BC0E3E3F0E08081482F50E02E
:1022A0008B81282F30E081E090E002C0880F991FD9
:1022B0002A95E2F79A01282339238B81882F90E011
:1022C000A90102C0559547958A95E2F7CA0189830D
:1022D0001DC0E0E3F0E08081482F50E08B81282F83
:1022E00030E081E090E002C0880F991F2A95E2F764
:1022F0009A01282339238B81882F90E0A90102C0FD
:10230000559547958A95E2F7CA01898389810F908F
:102310000F900F900F900F90CF91DF910895DF9362
:10232000CF9300D000D0CDB7DEB789836A8389818F
:10233000282F30E03C832B838B819C818130910559
:1023400049F12B813C81223031052CF48B819C8119
:10235000009761F05AC02B813C812230310571F128
:102360008B819C8183309105E9F14FC0ABE3B0E0F4
:10237000EBE3F0E08081482F8A81282F30E081E074
:1023800090E0022E02C0880F991F0A94E2F784277A
:102390008C933BC0A8E3B0E0E8E3F0E08081482FF5
:1023A0008A81282F30E081E090E0022E02C0880F61
:1023B000991F0A94E2F784278C9327C0A5E3B0E025
:1023C000E5E3F0E08081482F8A81282F30E081E02A
:1023D00090E0022E02C0880F991F0A94E2F784272A
:1023E0008C9313C0A2E3B0E0E2E3F0E08081482FD9
:1023F0008A81282F30E081E090E0022E02C0880F11
:10240000991F0A94E2F784278C930F900F900F90F6
:102410000F90CF91DF910895DF93CF9300D000D03C
:10242000CDB7DEB789836A838981282F30E03C836A
:102430002B838B819C8181309105D1F02B813C8154
:10244000223031052CF48B819C81009761F01EC0F5
:102450002B813C812230310581F08B819C8183303E
:10246000910581F013C0EAE3F0E08A8180830EC019
:10247000E7E3F0E08A81808309C0E4E3F0E08A8149
:10248000808304C0E1E3F0E08A8180830F900F90A5
:102490000F900F90CF91DF910895DF93CF9300D0ED
:1024A00000D0CDB7DEB789836A838981282F30E0D9
:1024B0003C832B838B819C8181309105D1F02B81D2
:1024C0003C81223031052CF48B819C81009761F096
:1024D0001EC02B813C812230310581F08B819C8193
:1024E0008330910581F013C0EBE3F0E08A818083B3
:1024F0000EC0E8E3F0E08A81808309C0E5E3F0E004
:102500008A81808304C0E2E3F0E08A8180830F90B7
:102510000F900F900F90CF91DF910895DF93CF939D
:1025200000D000D0CDB7DEB78A838A81282F30E073
:102530003C832B838B819C8181309105D1F02B8151
:102540003C81223031052CF48B819C81009761F015
:102550001EC02B813C812230310581F08B819C8112
:102560008330910581F013C0E9E3F0E08081898335
:102570000EC0E6E3F0E08081898309C0E3E3F0E088
:102580008081898304C0E0E3F0E0808189838981D0
:102590000F900F900F900F90CF91DF910895DF93E0
:1025A000CF9300D00F92CDB7DEB789838981282FD2
:1025B00030E03B832A838A819B8181309105E9F059
:1025C0002A813B81223031052CF48A819B8100973E
:1025D00061F02AC02A813B8122303105B1F08A8125
:1025E0009B8183309105C9F01FC0ABE3B0E0EBE302
:1025F000F0E0808180958C9317C0A8E3B0E0E8E319
:10260000F0E0808180958C930FC0A5E3B0E0E5E316
:10261000F0E0808180958C9307C0A2E3B0E0E2E314
:10262000F0E0808180958C930F900F900F90CF9168
:10263000DF910895DF93CF93CDB7DEB783E061E0FC
:1026400041E00E94000F88E090E060E00E94770780
:10265000CF91DF910895DF93CF93CDB7DEB76C971D
:102660000FB6F894DEBF0FBECDBF83E061E041E05E
:102670000E94F20F80E090E0A0E7B2E48D8B9E8B89
:10268000AF8BB88F6D897E898F89988D2BEA3AEA56
:102690004AE250E40E941F02DC01CB01898B9A8B35
:1026A000AB8BBC8B69897A898B899C8920E030E06F
:1026B00040E85FE30E94850488231CF481E0888B56
:1026C00091C069897A898B899C8920E030E04FE745
:1026D00053E40E94250418160CF07BC06D897E8996
:1026E0008F89988D20E030E04AE754E40E94190376
:1026F000DC01CB018C879D87AE87BF876C857D858C
:102700008E859F8520E030E04AEF54E40E941F024E
:10271000DC01CB0188879987AA87BB876885798583
:102720008A859B8520E030E040E85FE30E948504D5
:1027300088232CF481E090E09F838E833FC06885DE
:1027400079858A859B8520E03FEF4FE757E40E941B
:10275000250418164CF56C857D858E859F8520E0B7
:1027600030E040E251E40E941F02DC01CB01BC01D9
:10277000CD010E944900DC01CB019F838E830FC0F5
:1027800088EC90E09D838C838C819D810197F1F78B
:102790009D838C838E819F8101979F838E838E8101
:1027A0009F81009769F724C0688579858A859B8514
:1027B0000E944900DC01CB019F838E838E819F8123
:1027C0009B838A838A819B810197F1F79B838A830C
:1027D0000FC069897A898B899C890E944900DC0134
:1027E000CB01888B8889898389818A95F1F78983D0
:1027F00083E061E040E00E94F20F0E946D0DDC0179
:10280000CB0124E933E440E050E0BC01CD010E945B
:10281000DF22DC01CB01BC01CD010E940905DC01F6
:10282000CB01BC01CD0120E034E244E759E40E9431
:102830001903DC01CB01BC01CD010E944900DC0180
:10284000CB01898F9A8FAB8FBC8F898D9A8DAB8D81
:10285000BC8DBC01CD016C960FB6F894DEBF0FBEE7
:10286000CDBFCF91DF910895DF93CF9300D000D0FB
:10287000CDB7DEB79A8389837C836B8389819B8103
:10288000692F40E00E94000F89819B81692F41E000
:102890000E94F20F0F900F900F900F90CF91DF9149
:1028A0000895DF93CF93CDB7DEB7A1970FB6F89415
:1028B000DEBF0FBECDBF9F8F8E8F79A368A38E8D95
:1028C00098A1692F0E94E4108D8F8D8D882309F0C7
:1028D000E6C080E090E0A0EAB1E4898F9A8FAB8FE8
:1028E000BC8F698D7A8D8B8D9C8D20E030E04AEF16
:1028F00054E40E941F02DC01CB018D8B9E8BAF8BB9
:10290000B88F6D897E898F89988D20E030E040E80E
:102910005FE30E94850488232CF481E090E09C8B87
:102920008B8B3FC06D897E898F89988D20E03FEF2A
:102930004FE757E40E94250418164CF5698D7A8DEF
:102940008B8D9C8D20E030E040E251E40E941F021C
:10295000DC01CB01BC01CD010E944900DC01CB01AF
:102960009C8B8B8B0FC088EC90E09A8B898B89892C
:102970009A890197F1F79A8B898B8B899C890197AA
:102980009C8B8B8B8B899C89009769F714C06D8910
:102990007E898F89988D0E944900DC01CB019C8B38
:1029A0008B8B8B899C89988B8F878F8598890197D2
:1029B000F1F7988B8F871D8E80E090E0A0EAB1E45C
:1029C0008B879C87AD87BE876B857C858D859E8533
:1029D00020E030E04AEF54E40E941F02DC01CB010A
:1029E0008F839887A987BA876F81788589859A852B
:1029F00020E030E040E85FE30E94850488232CF467
:102A000081E090E09E838D833FC06F8178858985CA
:102A10009A8520E03FEF4FE757E40E9425041816FF
:102A20004CF56B857C858D859E8520E030E040E20D
:102A300051E40E941F02DC01CB01BC01CD010E94C8
:102A40004900DC01CB019E838D830FC088EC90E0B0
:102A50009C838B838B819C810197F1F79C838B8373
:102A60008D819E8101979E838D838D819E810097AC
:102A700069F717C06F81788589859A850E9449001A
:102A8000DC01CB019E838D838D819E819A83898316
:102A900089819A810197F1F79A83898302C081E045
:102AA0008D8F8D8DA1960FB6F894DEBF0FBECDBF72
:102AB000CF91DF910895EF920F93DF93CF93CDB72E
:102AC000DEB728970FB6F894DEBF0FBECDBF89835F
:102AD0006A834B832C830D83EE8289816B8141E075
:102AE0000E94000F89816C8141E00E94000F898162
:102AF0006D8141E00E94000F89816E8141E00E945A
:102B0000000F8A81282F30E038872F838F819885A6
:102B10008230910509F446C02F8138852330310574
:102B200054F48F819885009799F02F813885213052
:102B3000310519F175C08F8198858330910509F4AD
:102B400046C02F8138852430310509F455C068C04E
:102B500089816B8141E00E94F20F89816C8140E0A4
:102B60000E94F20F89816D8141E00E94F20F8981FC
:102B70006E8140E00E94F20F53C089816B8140E07A
:102B80000E94F20F89816C8141E00E94F20F8981DD
:102B90006D8140E00E94F20F89816E8141E00E94C8
:102BA000F20F3EC089816B8141E00E94F20F898162
:102BB0006C8140E00E94F20F89816D8140E00E94AB
:102BC000F20F89816E8141E00E94F20F29C0898154
:102BD0006B8140E00E94F20F89816C8141E00E948C
:102BE000F20F89816D8141E00E94F20F89816E812F
:102BF00040E00E94F20F14C089816B8140E00E9486
:102C0000F20F89816C8140E00E94F20F89816D8111
:102C100040E00E94F20F89816E8140E00E94F20F35
:102C200028960FB6F894DEBF0FBECDBFCF91DF91CF
:102C30000F91EF9008950F931F93DF93CF93CDB72C
:102C4000DEB7C455D0400FB6F894DEBF0FBECDBF7F
:102C5000FE01EF5AFF4F80E090E0A8E4B2E48083E9
:102C60009183A283B3838E01035B1F4FFE01EF5A52
:102C7000FF4F608171818281938120E030E04AEFD3
:102C800054E40E941F02DC01CB01F8018083918390
:102C9000A283B383FE01E35BFF4F60817181828178
:102CA000938120E030E040E85FE30E9485048823C0
:102CB00044F4FE01E55BFF4F81E090E09183808367
:102CC00064C0FE01E35BFF4F60817181828193816B
:102CD00020E03FEF4FE757E40E94250418160CF060
:102CE00043C0FE01EF5AFF4F608171818281938161
:102CF00020E030E040E251E40E941F02DC01CB0101
:102D00008E01055B1F4FBC01CD010E944900DC0113
:102D1000CB01F801918380831FC0FE01E75BFF4F69
:102D200088EC90E091838083FE01E75BFF4F808118
:102D300091810197F1F7FE01E75BFF4F918380835B
:102D4000DE01A55BBF4FFE01E55BFF4F80819181F6
:102D5000019711969C938E93FE01E55BFF4F808156
:102D600091810097D1F627C08E01055B1F4FFE01B0
:102D7000E35BFF4F60817181828193810E944900F2
:102D8000DC01CB01F80191838083DE01A95BBF4F99
:102D9000FE01E55BFF4F808191818D939C93FE0145
:102DA000E95BFF4F808191810197F1F7FE01E95BBB
:102DB000FF4F9183808380E064E041E00E94000F38
:102DC00080E065E041E00E94000F80E066E041E0C5
:102DD0000E94000F80E067E041E00E94000F81E068
:102DE00060E041E00E94000F81E061E041E00E946C
:102DF000000F81E062E041E00E94000F82E00E944B
:102E0000E41BFE01ED5BFF4F80E090E0A0E8BFE334
:102E100080839183A283B3838E01015C1F4FFE01E7
:102E2000ED5BFF4F608171818281938120E030E012
:102E30004AEF54E40E941F02DC01CB01F8018083B9
:102E40009183A283B383FE01FF96608171818281A9
:102E5000938120E030E040E85FE30E94850488230E
:102E60002CF481E090E09EAF8DAF46C0FE01FF964E
:102E7000608171818281938120E03FEF4FE757E4C9
:102E80000E942504181664F5FE01ED5BFF4F60817A
:102E900071818281938120E030E040E251E40E9420
:102EA0001F02DC01CB01BC01CD010E944900DC0105
:102EB000CB019EAF8DAF0FC088EC90E09CAF8BAF85
:102EC0008BAD9CAD0197F1F79CAF8BAF8DAD9EADF7
:102ED00001979EAF8DAF8DAD9EAD009769F716C07F
:102EE000FE01FF9660817181828193810E94490079
:102EF000DC01CB019EAF8DAF8DAD9EAD9AAF89AF9A
:102F000089AD9AAD0197F1F79AAF89AF88E20E9437
:102F1000E41B80E090E0A0E8BFE38DAB9EABAFABDD
:102F2000B8AF6DA97EA98FA998AD20E030E04AEF37
:102F300054E40E941F02DC01CB0189AB9AABABAB1E
:102F4000BCAB69A97AA98BA99CA920E030E040E834
:102F50005FE30E94850488232CF481E090E098AB25
:102F60008FA73FC069A97AA98BA99CA920E03FEF50
:102F70004FE757E40E94250418164CF56DA97EA969
:102F80008FA998AD20E030E040E251E40E941F029A
:102F9000DC01CB01BC01CD010E944900DC01CB0169
:102FA00098AB8FA70FC088EC90E09EA78DA78DA54A
:102FB0009EA50197F1F79EA78DA78FA598A90197C8
:102FC00098AB8FA78FA598A9009769F714C069A936
:102FD0007AA98BA99CA90E944900DC01CB0198AB7E
:102FE0008FA78FA598A99CA78BA78BA59CA50197B8
:102FF000F1F79CA78BA78EE00E94E41B80E090E095
:10300000A0E8BFE38FA398A7A9A7BAA76FA178A547
:1030100089A59AA520E030E04AEF54E40E941F02FF
:10302000DC01CB018BA39CA3ADA3BEA36BA17CA1B0
:103030008DA19EA120E030E040E85FE30E9485047E
:1030400088232CF481E090E09AA389A33FC06BA170
:103050007CA18DA19EA120E03FEF4FE757E40E94A5
:10306000250418164CF56FA178A589A59AA520E02E
:1030700030E040E251E40E941F02DC01CB01BC01C0
:10308000CD010E944900DC01CB019AA389A30FC0A6
:1030900088EC90E098A38F8F8F8D98A10197F1F71E
:1030A00098A38F8F89A19AA101979AA389A389A137
:1030B0009AA1009769F714C06BA17CA18DA19EA174
:1030C0000E944900DC01CB019AA389A389A19AA19E
:1030D0009E8F8D8F8D8D9E8D0197F1F79E8F8D8F99
:1030E00081E00E94E41B80E090E0A0E8B0E4898FDA
:1030F0009A8FAB8FBC8F698D7A8D8B8D9C8D20E0E4
:1031000030E04AEF54E40E941F02DC01CB018D8BBA
:103110009E8BAF8BB88F6D897E898F89988D20E0CB
:1031200030E040E85FE30E94850488232CF481E0CE
:1031300090E09C8B8B8B3FC06D897E898F89988DA9
:1031400020E03FEF4FE757E40E94250418164CF5A6
:10315000698D7A8D8B8D9C8D20E030E040E251E4CA
:103160000E941F02DC01CB01BC01CD010E9449007D
:10317000DC01CB019C8B8B8B0FC088EC90E09A8B91
:10318000898B89899A890197F1F79A8B898B8B8929
:103190009C8901979C8B8B8B8B899C89009769F705
:1031A00014C06D897E898F89988D0E944900DC0149
:1031B000CB019C8B8B8B8B899C89988B8F878F8580
:1031C00098890197F1F7988B8F8786E00E94E41B1E
:1031D00080E090E0A0E8BFE38B879C87AD87BE8747
:1031E0006B857C858D859E8520E030E04AEF54E438
:1031F0000E941F02DC01CB018F839887A987BA87C1
:103200006F81788589859A8520E030E040E85FE32A
:103210000E94850488232CF481E090E09E838D83B6
:103220003FC06F81788589859A8520E03FEF4FE721
:1032300057E40E94250418164CF56B857C858D8516
:103240009E8520E030E040E251E40E941F02DC0154
:10325000CB01BC01CD010E944900DC01CB019E8362
:103260008D830FC088EC90E09C838B838B819C8145
:103270000197F1F79C838B838D819E8101979E83BB
:103280008D838D819E81009769F714C06F81788549
:1032900089859A850E944900DC01CB019E838D833C
:1032A0008D819E819A83898389819A810197F1F723
:1032B0009A838983CC5ADF4F0FB6F894DEBF0FBED6
:1032C000CDBFCF91DF911F910F910895DF93CF93E1
:1032D000CDB7DEB7E9970FB6F894DEBF0FBECDBF0E
:1032E00089AF81E060E041E00E94F20F81E061E09F
:1032F00040E00E94F20F89AD882F90E080719070BD
:1033000095958795959587959595879595958795A5
:10331000982F80E064E0492F0E94F20F89AD882F3A
:1033200090E0807290709595879595958795959585
:1033300087959595879595958795982F80E065E079
:10334000492F0E94F20F89AD882F90E08074907011
:10335000082E892F000C881F990B000C881F991FBD
:10336000982F80E066E0492F0E94F20F89AD982FD8
:10337000991F9927991F80E067E0492F0E94F20F5B
:1033800081E062E041E00E94F20F80E090E0A0E87E
:10339000BFE38DAB9EABAFABB8AF6DA97EA98FA9D4
:1033A00098AD20E030E04AEF54E40E941F02DC01B7
:1033B000CB0189AB9AABABABBCAB69A97AA98BA9A2
:1033C0009CA920E030E040E85FE30E948504882368
:1033D0002CF481E090E098AB8FA73FC069A97AA94F
:1033E0008BA99CA920E03FEF4FE757E40E942504FA
:1033F00018164CF56DA97EA98FA998AD20E030E094
:1034000040E251E40E941F02DC01CB01BC01CD016E
:103410000E944900DC01CB0198AB8FA70FC088EC5C
:1034200090E09EA78DA78DA59EA50197F1F79EA779
:103430008DA78FA598A9019798AB8FA78FA598A95D
:10344000009769F714C069A97AA98BA99CA90E9461
:103450004900DC01CB0198AB8FA78FA598A99CA749
:103460008BA78BA59CA50197F1F79CA78BA781E063
:1034700062E040E00E94F20F80E090E0A0E8BFE34D
:103480008FA398A7A9A7BAA76FA178A589A59AA580
:1034900020E030E04AEF54E40E941F02DC01CB013F
:1034A0008BA39CA3ADA3BEA36BA17CA18DA19EA168
:1034B00020E030E040E85FE30E94850488232CF49C
:1034C00081E090E09AA389A33FC06BA17CA18DA16C
:1034D0009EA120E03FEF4FE757E40E942504181615
:1034E0004CF56FA178A589A59AA520E030E040E2CF
:1034F00051E40E941F02DC01CB01BC01CD010E94FE
:103500004900DC01CB019AA389A30FC088EC90E0AD
:1035100098A38F8F8F8D98A10197F1F798A38F8F24
:1035200089A19AA101979AA389A389A19AA1009739
:1035300069F714C06BA17CA18DA19EA10E944900D6
:10354000DC01CB019AA389A389A19AA19E8F8D8FBB
:103550008D8D9E8D0197F1F79E8F8D8F81E060E0BC
:1035600041E00E94F20F81E061E040E00E94F20F32
:1035700089AD982F917080E064E0492F0E94F20F8E
:1035800089AD882F90E08270907095958795982FDF
:1035900080E065E0492F0E94F20F89AD882F90E00E
:1035A000847090709595879595958795982F80E074
:1035B00066E0492F0E94F20F89AD882F90E0887055
:1035C0009070959587959595879595958795982F62
:1035D00080E067E0492F0E94F20F81E062E041E065
:1035E0000E94F20F80E090E0A0E8BFE3898F9A8FFD
:1035F000AB8FBC8F698D7A8D8B8D9C8D20E030E0F8
:103600004AEF54E40E941F02DC01CB018D8B9E8B9C
:10361000AF8BB88F6D897E898F89988D20E030E0DF
:1036200040E85FE30E94850488232CF481E090E069
:103630009C8B8B8B3FC06D897E898F89988D20E014
:103640003FEF4FE757E40E94250418164CF5698DAB
:103650007A8D8B8D9C8D20E030E040E251E40E9419
:103660001F02DC01CB01BC01CD010E944900DC013D
:10367000CB019C8B8B8B0FC088EC90E09A8B898B55
:1036800089899A890197F1F79A8B898B8B899C8913
:1036900001979C8B8B8B8B899C89009769F714C051
:1036A0006D897E898F89988D0E944900DC01CB014C
:1036B0009C8B8B8B8B899C89988B8F878F85988926
:1036C0000197F1F7988B8F8781E062E040E00E94DC
:1036D000F20F80E090E0A0E8BFE38B879C87AD8786
:1036E000BE876B857C858D859E8520E030E04AEF26
:1036F00054E40E941F02DC01CB018F839887A987C5
:10370000BA876F81788589859A8520E030E040E826
:103710005FE30E94850488232CF481E090E09E837F
:103720008D833FC06F81788589859A8520E03FEF42
:103730004FE757E40E94250418164CF56B857C85ED
:103740008D859E8520E030E040E251E40E941F021A
:10375000DC01CB01BC01CD010E944900DC01CB01A1
:103760009E838D830FC088EC90E09C838B838B813C
:103770009C810197F1F79C838B838D819E810197BA
:103780009E838D838D819E81009769F714C06F8120
:10379000788589859A850E944900DC01CB019E834A
:1037A0008D838D819E819A83898389819A810197F6
:1037B000F1F79A838983E9960FB6F894DEBF0FBEBE
:1037C000CDBFCF91DF910895DF93CF93CDB7DEB713
:1037D000E9970FB6F894DEBF0FBECDBF89AF81E089
:1037E00060E040E00E94F20F81E061E040E00E9472
:1037F000F20F89AD882F90E0807190709595879534
:10380000959587959595879595958795982F80E0BF
:1038100064E0492F0E94F20F89AD882F90E08072FA
:10382000907095958795959587959595879595959C
:10383000879595958795982F80E065E0492F0E94A0
:10384000F20F89AD882F90E080749070082E892F38
:10385000000C881F990B000C881F991F982F80E07F
:1038600066E0492F0E94F20F89AD982F991F992782
:10387000991F80E067E0492F0E94F20F81E062E02B
:1038800041E00E94F20F80E090E0A0E8BFE38DAB42
:103890009EABAFABB8AF6DA97EA98FA998AD20E064
:1038A00030E04AEF54E40E941F02DC01CB0189ABF7
:1038B0009AABABABBCAB69A97AA98BA99CA920E058
:1038C00030E040E85FE30E94850488232CF481E027
:1038D00090E098AB8FA73FC069A97AA98BA99CA952
:1038E00020E03FEF4FE757E40E94250418164CF5FF
:1038F0006DA97EA98FA998AD20E030E040E251E4A7
:103900000E941F02DC01CB01BC01CD010E944900D5
:10391000DC01CB0198AB8FA70FC088EC90E09EA78D
:103920008DA78DA59EA50197F1F79EA78DA78FA5C1
:1039300098A9019798AB8FA78FA598A9009769F7C9
:1039400014C069A97AA98BA99CA90E944900DC012D
:10395000CB0198AB8FA78FA598A99CA78BA78BA508
:103960009CA50197F1F79CA78BA781E062E040E05E
:103970000E94F20F80E090E0A0E8BFE38FA398A739
:10398000A9A7BAA76FA178A589A59AA520E030E0DC
:103990004AEF54E40E941F02DC01CB018BA39CA3DD
:1039A000ADA3BEA36BA17CA18DA19EA120E030E0C0
:1039B00040E85FE30E94850488232CF481E090E0D6
:1039C0009AA389A33FC06BA17CA18DA19EA120E0F9
:1039D0003FEF4FE757E40E94250418164CF56FA1FE
:1039E00078A589A59AA520E030E040E251E40E9444
:1039F0001F02DC01CB01BC01CD010E944900DC01AA
:103A0000CB019AA389A30FC088EC90E098A38F8F75
:103A10008F8D98A10197F1F798A38F8F89A19AA113
:103A200001979AA389A389A19AA1009769F714C065
:103A30006BA17CA18DA19EA10E944900DC01CB015C
:103A40009AA389A389A19AA19E8F8D8F8D8D9E8D1A
:103A50000197F1F79E8F8D8F81E060E040E00E943A
:103A6000F20F81E061E040E00E94F20F89AD982FF3
:103A7000917080E064E0492F0E94F20F89AD882F99
:103A800090E08270907095958795982F80E065E022
:103A9000492F0E94F20F89AD882F90E084709070BA
:103AA0009595879595958795982F80E066E0492FA5
:103AB0000E94F20F89AD882F90E0887090709595E4
:103AC00087959595879595958795982F80E067E0E0
:103AD000492F0E94F20F81E062E041E00E94F20F64
:103AE00080E090E0A0E8BFE3898F9A8FAB8FBC8F16
:103AF000698D7A8D8B8D9C8D20E030E04AEF54E407
:103B00000E941F02DC01CB018D8B9E8BAF8BB88F87
:103B10006D897E898F89988D20E030E040E85FE3F1
:103B20000E94850488232CF481E090E09C8B8B8B91
:103B30003FC06D897E898F89988D20E03FEF4FE7E8
:103B400057E40E94250418164CF5698D7A8D8B8DEB
:103B50009C8D20E030E040E251E40E941F02DC0135
:103B6000CB01BC01CD010E944900DC01CB019C8B43
:103B70008B8B0FC088EC90E09A8B898B89899A890E
:103B80000197F1F79A8B898B8B899C8901979C8B84
:103B90008B8B8B899C89009769F714C06D897E890E
:103BA0008F89988D0E944900DC01CB019C8B8B8B07
:103BB0008B899C89988B8F878F8598890197F1F7DE
:103BC000988B8F8781E062E040E00E94F20F80E0F6
:103BD00090E0A0E8BFE38B879C87AD87BE876B85AD
:103BE0007C858D859E8520E030E04AEF54E40E947C
:103BF0001F02DC01CB018F839887A987BA876F8169
:103C0000788589859A8520E030E040E85FE30E946E
:103C1000850488232CF481E090E09E838D833FC04F
:103C20006F81788589859A8520E03FEF4FE757E4DB
:103C30000E94250418164CF56B857C858D859E8524
:103C400020E030E040E251E40E941F02DC01CB01A1
:103C5000BC01CD010E944900DC01CB019E838D8314
:103C60000FC088EC90E09C838B838B819C810197B3
:103C7000F1F79C838B838D819E8101979E838D8339
:103C80008D819E81009769F714C06F817885898541
:103C90009A850E944900DC01CB019E838D838D8132
:103CA0009E819A83898389819A810197F1F79A830A
:103CB0008983E9960FB6F894DEBF0FBECDBFCF91D2
:103CC000DF910895DF93CF9300D00F92CDB7DEB789
:103CD0009B838A8319820EC08981282F30E08A81D4
:103CE0009B81FC01E20FF31F80810E94661989818C
:103CF0008F5F89838981282F30E08A819B81FC0135
:103D0000E20FF31F8081882339F70F900F900F90F7
:103D1000CF91DF910895DF93CF93CDB7DEB72E9784
:103D20000FB6F894DEBF0FBECDBF81E00E94E41B4A
:103D300080E090E0A0E8B0E48B879C87AD87BE87E9
:103D40006B857C858D859E8520E030E04AEF54E4CC
:103D50000E941F02DC01CB018F839887A987BA8755
:103D60006F81788589859A8520E030E040E85FE3BF
:103D70000E94850488232CF481E090E09E838D834B
:103D80003FC06F81788589859A8520E03FEF4FE7B6
:103D900057E40E94250418164CF56B857C858D85AB
:103DA0009E8520E030E040E251E40E941F02DC01E9
:103DB000CB01BC01CD010E944900DC01CB019E83F7
:103DC0008D830FC088EC90E09C838B838B819C81DA
:103DD0000197F1F79C838B838D819E8101979E8350
:103DE0008D838D819E81009769F714C06F817885DE
:103DF00089859A850E944900DC01CB019E838D83D1
:103E00008D819E819A83898389819A810197F1F7B7
:103E10009A8389832E960FB6F894DEBF0FBECDBF6E
:103E2000CF91DF910895DF93CF93CDB7DEB72E9773
:103E30000FB6F894DEBF0FBECDBF88E10E94E41B31
:103E400080E090E0A0E8BFE38B879C87AD87BE87CA
:103E50006B857C858D859E8520E030E04AEF54E4BB
:103E60000E941F02DC01CB018F839887A987BA8744
:103E70006F81788589859A8520E030E040E85FE3AE
:103E80000E94850488232CF481E090E09E838D833A
:103E90003FC06F81788589859A8520E03FEF4FE7A5
:103EA00057E40E94250418164CF56B857C858D859A
:103EB0009E8520E030E040E251E40E941F02DC01D8
:103EC000CB01BC01CD010E944900DC01CB019E83E6
:103ED0008D830FC088EC90E09C838B838B819C81C9
:103EE0000197F1F79C838B838D819E8101979E833F
:103EF0008D838D819E81009769F714C06F817885CD
:103F000089859A850E944900DC01CB019E838D83BF
:103F10008D819E819A83898389819A810197F1F7A6
:103F20009A8389832E960FB6F894DEBF0FBECDBF5D
:103F3000CF91DF910895DF93CF93CDB7DEB72E9762
:103F40000FB6F894DEBF0FBECDBF8CE10E94E41B1C
:103F500080E090E0A0E8BFE38B879C87AD87BE87B9
:103F60006B857C858D859E8520E030E04AEF54E4AA
:103F70000E941F02DC01CB018F839887A987BA8733
:103F80006F81788589859A8520E030E040E85FE39D
:103F90000E94850488232CF481E090E09E838D8329
:103FA0003FC06F81788589859A8520E03FEF4FE794
:103FB00057E40E94250418164CF56B857C858D8589
:103FC0009E8520E030E040E251E40E941F02DC01C7
:103FD000CB01BC01CD010E944900DC01CB019E83D5
:103FE0008D830FC088EC90E09C838B838B819C81B8
:103FF0000197F1F79C838B838D819E8101979E832E
:104000008D838D819E81009769F714C06F817885BB
:1040100089859A850E944900DC01CB019E838D83AE
:104020008D819E819A83898389819A810197F1F795
:104030009A8389832E960FB6F894DEBF0FBECDBF4C
:10404000CF91DF910895DF93CF9300D00F92CDB73A
:10405000DEB78A836B838A81882319F48B818983F5
:1040600006C08A81813019F48B81805C89838981C3
:1040700080580E94E41B0F900F900F90CF91DF911A
:104080000895DF93CF9300D000D000D0CDB7DEB736
:104090009B838A836C834D832E838C81882F90E051
:1040A0000896880F991F880F991F880F991F0E94E3
:1040B000E41B19820EC08981282F30E08A819B8100
:1040C000FC01E20FF31F80810E94661989818F5FD6
:1040D00089838981883078F38D816E810E942320C5
:1040E0008C810E94661926960FB6F894DEBF0FBE2B
:1040F000CDBFCF91DF910895DF93CF9300D00F9282
:10410000CDB7DEB789836A834B8389816A8141E0B9
:104110000E94000F89816B8141E00E94000F0F9087
:104120000F900F90CF91DF910895DF93CF9300D040
:104130000F92CDB7DEB789836A834B8389816A8109
:1041400040E00E94F20F89816B8140E00E94F20FF3
:104150000F900F900F90CF91DF910895DF93CF9341
:1041600000D00F92CDB7DEB789836A834B838981F4
:104170006A8141E00E94F20F89816B8140E00E94D8
:10418000F20F0F900F900F90CF91DF910895DF9372
:10419000CF9300D00F92CDB7DEB789836A834B836C
:1041A00089816A8140E00E94F20F89816B8141E040
:1041B0000E94F20F0F900F900F90CF91DF91089512
:1041C000DF93CF9300D000D0CDB7DEB79A83898339
:1041D0007C836B8389819B81692F41E00E94000F62
:1041E0000F900F900F900F90CF91DF910895DF9374
:1041F000CF9300D000D0CDB7DEB79A8389837C837C
:104200006B8389819B81692F41E00E94F20F0F909F
:104210000F900F900F90CF91DF910895DF93CF9380
:1042200000D000D0CDB7DEB79A8389837C836B83BF
:1042300089819B81692F40E00E94F20F0F900F90BF
:104240000F900F90CF91DF910895DF93CF9300D01F
:1042500000D0CDB7DEB79A8389837C836B83898155
:104260009B81692F0E948F110F900F900F900F90DC
:10427000CF91DF910895DF93CF93CDB7DEB76697E7
:104280000FB6F894DEBF0FBECDBF0E941B160E9472
:104290001A1382E064E045E00E947C2082E066E040
:1042A00047E00E947C2083E090E065E070E00E949F
:1042B000E02082E090E060E070E00E94341482E050
:1042C00090E061E070E00E94341482E090E062E0EF
:1042D00070E00E94341482E090E063E070E00E949D
:1042E00034140E948B1E80E060E00E94232080E650
:1042F00090E00E94621E0E942B13DC01CB018B8B8D
:104300009C8BAD8BBE8B8B899C89AD89BE892AE045
:1043100030E040E050E0BC01CD010E94FE22DA0115
:10432000C901805D0E9466198B899C89AD89BE890F
:104330002AE030E040E050E0BC01CD010E94FE22C6
:10434000DC01CB01805D0E9466198AE690E00E9444
:10435000621E81E08A8B81E0898B81E0888B81E01D
:104360008F8782E090E060E070E00E9451148A8BB9
:1043700082E090E061E070E00E945114898B82E05D
:1043800090E062E070E00E945114888B82E090E03F
:1043900063E070E00E9451148F878B899C89AD89FE
:1043A000BE8984319105A105B10508F46BC08A89E5
:1043B000882399F482E064E045E00E94AE2082E028
:1043C00066E047E00E94AE2081E060E00E9423208A
:1043D0008DE690E00E94621E67C08989882399F467
:1043E00082E064E045E00E94C72082E066E047E0AA
:1043F0000E94C72081E060E00E94232085E790E0D2
:104400000E94621E51C08889882399F482E064E08A
:1044100045E00E94AE2082E066E047E00E949520E1
:1044200081E060E00E9423208EE790E00E94621EFF
:104430003BC08F85882399F482E066E047E00E94C4
:10444000C72082E064E045E00E94952081E060E0C2
:104450000E94232083E890E00E94621E25C082E033
:1044600064E045E00E94952082E066E047E00E941B
:10447000952081E060E00E94232089E890E00E947E
:10448000621E12C082E064E045E00E94952082E056
:1044900066E047E00E94952081E060E00E942320D2
:1044A00089E890E00E94621E8B899C89AD89BE8953
:1044B00085319105A105B10538F483E090E065E010
:1044C00070E00E94F72006C083E090E065E070E0B5
:1044D0000E940E2180E090E0AAEFB4E48B879C87D5
:1044E000AD87BE876B857C858D859E8520E030E01D
:1044F0004AEF54E40E941F02DC01CB018F839887AE
:10450000A987BA876F81788589859A8520E030E010
:1045100040E85FE30E94850488232CF481E090E06A
:104520009E838D833FC06F81788589859A8520E041
:104530003FEF4FE757E40E94250418164CF56B85B2
:104540007C858D859E8520E030E040E251E40E942C
:104550001F02DC01CB01BC01CD010E944900DC013E
:10456000CB019E838D830FC088EC90E09C838B836E
:104570008B819C810197F1F79C838B838D819E8138
:1045800001979E838D838D819E81009769F714C06A
:104590006F81788589859A850E944900DC01CB016D
:1045A0009E838D838D819E819A83898389819A815F
:1045B0000197F1F79A8389830E948B1E92CE629FA6
:1045C000D001739FF001829FE00DF11D649FE00D0B
:1045D000F11D929FF00D839FF00D749FF00D659F6C
:1045E000F00D9927729FB00DE11DF91F639FB00D6B
:1045F000E11DF91FBD01CF0111240895A1E21A2E7A
:10460000AA1BBB1BFD010DC0AA1FBB1FEE1FFF1F76
:10461000A217B307E407F50720F0A21BB30BE40BC6
:10462000F50B661F771F881F991F1A9469F760950D
:104630007095809590959B01AC01BD01CF010895C7
:104640002F923F924F925F926F927F928F929F92A2
:10465000AF92BF92CF92DF92EF92FF920F931F9390
:10466000CF93DF93CDB7DEB7CA1BDB0B0FB6F89441
:10467000DEBF0FBECDBF09942A88398848885F8481
:104680006E847D848C849B84AA84B984C884DF80F2
:10469000EE80FD800C811B81AA81B981CE0FD11DD6
:1046A0000FB6F894DEBF0FBECDBFED010895F894AC
:0246B000FFCF3A
:1046B20044697374616E63653D00636D00466F7299
:1046C20077617264004261636B77617264004C656A
:1046D20066740052696768740053746F700000005A
:1046E20000000000000000010202030303030404AF
:1046F200040404040404050505050505050505056E
:10470200050505050505060606060606060606064D
:104712000606060606060606060606060606060637
:10472200060606060606070707070707070707071D
:104732000707070707070707070707070707070707
:1047420007070707070707070707070707070707F7
:1047520007070707070707070707070707070707E7
:1047620007070707070708080808080808080808CD
:1047720008080808080808080808080808080808B7
:1047820008080808080808080808080808080808A7
:104792000808080808080808080808080808080897
:1047A2000808080808080808080808080808080887
:1047B2000808080808080808080808080808080877
:1047C2000808080808080808080808080808080867
:1047D2000808080808080808080808080808080857
:0647E200080808080808A1
:00000001FF
